{
  "contractName": "ticket",
  "abi": [
    {
      "inputs": [],
      "stateMutability": "nonpayable",
      "type": "constructor"
    },
    {
      "inputs": [
        {
          "internalType": "address",
          "name": "",
          "type": "address"
        }
      ],
      "name": "Guest",
      "outputs": [
        {
          "internalType": "uint256",
          "name": "",
          "type": "uint256"
        }
      ],
      "stateMutability": "view",
      "type": "function",
      "constant": true
    },
    {
      "inputs": [],
      "name": "Price",
      "outputs": [
        {
          "internalType": "uint256",
          "name": "",
          "type": "uint256"
        }
      ],
      "stateMutability": "view",
      "type": "function",
      "constant": true
    },
    {
      "inputs": [
        {
          "internalType": "address",
          "name": "",
          "type": "address"
        }
      ],
      "name": "Status",
      "outputs": [
        {
          "internalType": "bool",
          "name": "",
          "type": "bool"
        }
      ],
      "stateMutability": "view",
      "type": "function",
      "constant": true
    },
    {
      "inputs": [],
      "name": "manger",
      "outputs": [
        {
          "internalType": "address",
          "name": "",
          "type": "address"
        }
      ],
      "stateMutability": "view",
      "type": "function",
      "constant": true
    },
    {
      "inputs": [
        {
          "internalType": "uint256",
          "name": "_price",
          "type": "uint256"
        }
      ],
      "name": "Set_ticket_price",
      "outputs": [],
      "stateMutability": "nonpayable",
      "type": "function"
    },
    {
      "inputs": [
        {
          "internalType": "uint256",
          "name": "total",
          "type": "uint256"
        }
      ],
      "name": "Buy_ticket",
      "outputs": [],
      "stateMutability": "payable",
      "type": "function",
      "payable": true
    },
    {
      "inputs": [],
      "name": "Entery",
      "outputs": [],
      "stateMutability": "nonpayable",
      "type": "function"
    }
  ],
  "bytecode": "0x608060405234801561001057600080fd5b50336000806101000a81548173ffffffffffffffffffffffffffffffffffffffff021916908373ffffffffffffffffffffffffffffffffffffffff160217905550610901806100606000396000f3fe60806040526004361061006f5760003560e01c80633dcce6511161004e5780633dcce651146100f157806341e922151461012e5780639dfde2011461014a578063c0da38ce146101755761006f565b80622adf98146100745780631dc8a9b21461009d57806330e05d5c146100b4575b600080fd5b34801561008057600080fd5b5061009b60048036038101906100969190610531565b6101a0565b005b3480156100a957600080fd5b506100b2610238565b005b3480156100c057600080fd5b506100db60048036038101906100d691906105bc565b61035e565b6040516100e89190610604565b60405180910390f35b3480156100fd57600080fd5b50610118600480360381019061011391906105bc565b61037e565b604051610125919061062e565b60405180910390f35b61014860048036038101906101439190610531565b610396565b005b34801561015657600080fd5b5061015f6104cc565b60405161016c919061062e565b60405180910390f35b34801561018157600080fd5b5061018a6104d2565b6040516101979190610658565b60405180910390f35b60008054906101000a900473ffffffffffffffffffffffffffffffffffffffff1673ffffffffffffffffffffffffffffffffffffffff163373ffffffffffffffffffffffffffffffffffffffff161461022e576040517f08c379a0000000000000000000000000000000000000000000000000000000008152600401610225906106d0565b60405180910390fd5b8060018190555050565b600360003373ffffffffffffffffffffffffffffffffffffffff1673ffffffffffffffffffffffffffffffffffffffff16815260200190815260200160002060009054906101000a900460ff161561032157600260003373ffffffffffffffffffffffffffffffffffffffff1673ffffffffffffffffffffffffffffffffffffffff16815260200190815260200160002060009055600360003373ffffffffffffffffffffffffffffffffffffffff1673ffffffffffffffffffffffffffffffffffffffff16815260200190815260200160002060006101000a81549060ff021916905561035c565b6040517f08c379a00000000000000000000000000000000000000000000000000000000081526004016103539061073c565b60405180910390fd5b565b60036020528060005260406000206000915054906101000a900460ff1681565b60026020528060005260406000206000915090505481565b600081116103d9576040517f08c379a00000000000000000000000000000000000000000000000000000000081526004016103d0906107ce565b60405180910390fd5b806001546103e7919061081d565b340361048e5780600260003373ffffffffffffffffffffffffffffffffffffffff1673ffffffffffffffffffffffffffffffffffffffff168152602001908152602001600020819055506001600360003373ffffffffffffffffffffffffffffffffffffffff1673ffffffffffffffffffffffffffffffffffffffff16815260200190815260200160002060006101000a81548160ff0219169083151502179055506104c9565b6040517f08c379a00000000000000000000000000000000000000000000000000000000081526004016104c0906108ab565b60405180910390fd5b50565b60015481565b60008054906101000a900473ffffffffffffffffffffffffffffffffffffffff1681565b600080fd5b6000819050919050565b61050e816104fb565b811461051957600080fd5b50565b60008135905061052b81610505565b92915050565b600060208284031215610547576105466104f6565b5b60006105558482850161051c565b91505092915050565b600073ffffffffffffffffffffffffffffffffffffffff82169050919050565b60006105898261055e565b9050919050565b6105998161057e565b81146105a457600080fd5b50565b6000813590506105b681610590565b92915050565b6000602082840312156105d2576105d16104f6565b5b60006105e0848285016105a7565b91505092915050565b60008115159050919050565b6105fe816105e9565b82525050565b600060208201905061061960008301846105f5565b92915050565b610628816104fb565b82525050565b6000602082019050610643600083018461061f565b92915050565b6106528161057e565b82525050565b600060208201905061066d6000830184610649565b92915050565b600082825260208201905092915050565b7f4e6f7420746865206d616e616765720000000000000000000000000000000000600082015250565b60006106ba600f83610673565b91506106c582610684565b602082019050919050565b600060208201905081810360008301526106e9816106ad565b9050919050565b7f596f7520617265206e6f7420616c6c6f77656420746f20656e74657221000000600082015250565b6000610726601d83610673565b9150610731826106f0565b602082019050919050565b6000602082019050818103600083015261075581610719565b9050919050565b7f596f75206d75737420627579206174206c65617374206f6e65207469636b657460008201527f2e00000000000000000000000000000000000000000000000000000000000000602082015250565b60006107b8602183610673565b91506107c38261075c565b604082019050919050565b600060208201905081810360008301526107e7816107ab565b9050919050565b7f4e487b7100000000000000000000000000000000000000000000000000000000600052601160045260246000fd5b6000610828826104fb565b9150610833836104fb565b9250828202610841816104fb565b91508282048414831517610858576108576107ee565b5b5092915050565b7f4572726f722120506c6561736520636865636b20796f757220616d6f756e7420600082015250565b6000610895602083610673565b91506108a08261085f565b602082019050919050565b600060208201905081810360008301526108c481610888565b905091905056fea264697066735822122077c454604c9eacaebf7fc70c944044ea81b32db56dcd9514c369baaf00cffdf364736f6c63430008130033",
  "immutableReferences": {},
  "source": "// SPDX-License-Identifier: MIT\npragma solidity >=0.8.19;\n\ncontract ticket{\n    address public manger;\n    constructor() {\n        \n        manger=msg.sender;\n    }\n    uint public Price;\n    mapping(address=>uint )public Guest;\n    mapping(address =>bool)public Status;\n \n   modifier onlyManger() \n   {\n      require(msg.sender ==manger ,\"Not the manager\");\n        _;\n   }\n   function Set_ticket_price(uint _price)onlyManger()public{\n    Price = _price;\n   }\n   function Buy_ticket(uint total)public payable{\n    require(total >0, \"You must buy at least one ticket.\");\n    if(msg.value == (Price*total)){\n        Guest[msg.sender]=total;\n        Status[msg.sender] = true ;\n        // emit Bought(msg.sender,total);\n    }     \n    else{\n        revert(\"Error! Please check your amount \");\n        }\n          }\n    function Entery()public{\n        if(Status[msg.sender]){\n           delete Guest[msg.sender];\n           delete Status[msg.sender];\n          \n         }\n         else{\n             revert(\"You are not allowed to enter!\");\n         }\n    }  \n      \n\n    \n}\n\n",
  "sourcePath": "/home/ryzen/Desktop/Ticket/contracts/ticket.sol",
  "compiler": {
    "name": "solc",
    "version": "0.8.19+commit.7dd6d404.Emscripten.clang"
  },
  "schemaVersion": "3.4.16",
  "updatedAt": "2024-03-05T07:05:56.923Z",
  "networkType": "ethereum",
  "devdoc": {
    "kind": "dev",
    "methods": {},
    "version": 1
  },
  "userdoc": {
    "kind": "user",
    "methods": {},
    "version": 1
  }
}